:020000040800F2
:10000000008000200D5100088D1200089112000898
:1000100095120008991200089D12000800000000C7
:10002000000000000000000000000000A112000815
:10003000A512000800000000A9120008AD12000877
:100040005D5100085D5100085D5100085D510008D8
:100050005D5100085D5100085D5100085D510008C8
:100060005D5100085D5100085D510008B1120008A3
:100070005D5100085D5100085D5100085D510008A8
:100080005D51000800000000BD1200085D5100082D
:100090005D5100085D5100085D5100085D51000888
:1000A0005D5100085D5100085D5100085D51000878
:1000B0005D510008C91200085D5100085D5100083B
:1000C0005D5100085D5100085D5100085D51000858
:1000D0005D5100085D5100085D510008D51200080F
:1000E0005D5100085D5100085D5100085D51000838
:1000F0005D5100085D5100085D51000800000000DE
:10010000000000005D510008000000005D51000883
:100110005D510008000000005D5100085D510008BD
:100120005D5100085D5100085D5100085D510008F7
:100130005D51000800000000000000005D51000853
:100140005D5100085D510008000000000000000043
:10015000000000000000000000000000000000009F
:100160000000000000000000000000005D510008D9
:100170005D510008000000000000000000000000C9
:10018000000000005D5100080000000000000000B9
:10019000000000000000000000000000000000005F
:1001A00000000000000000005D5100085D510008E3
:1001B0005D5100085D5100085D510008000000001D
:1001C000000000005D510008000000000000000079
:0801D0005D5100085D510008BB
:1001D80081F0004102E000BF83F0004330B54FEAF0
:1001E80041044FEA430594EA050F08BF90EA020F5D
:1001F8001FBF54EA000C55EA020C7FEA645C7FEAF0
:10020800655C00F0E2804FEA5454D4EB5555B8BF12
:100218006D420CDD2C4480EA020281EA030382EA83
:10022800000083EA010180EA020281EA0303362D15
:1002380088BF30BD11F0004F4FEA01314FF4801CE8
:100248004CEA113102D0404261EB410113F0004FFA
:100258004FEA03334CEA133302D0524263EB4303B1
:1002680094EA050F00F0A780A4F10104D5F1200E4F
:100278000DDB02FA0EFC22FA05F2801841F10001AA
:1002880003FA0EF2801843FA05F359410EE0A5F17E
:1002980020050EF1200E012A03FA0EFC28BF4CF0AF
:1002A800020C43FA05F3C01851EBE37101F0004565
:1002B80007D54FF0000EDCF1000C7EEB00006EEB72
:1002C8000101B1F5801F1BD3B1F5001F0CD34908FC
:1002D8005FEA30004FEA3C0C04F101044FEA445253
:1002E80012F5800F80F09A80BCF1004F08BF5FEADA
:1002F800500C50F1000041EB045141EA050130BDBA
:100308005FEA4C0C404141EB0101013C28BFB1F5CB
:10031800801FE9D291F0000F04BF01460020B1FA16
:1003280081F308BF2033A3F10B03B3F120020CDAE9
:100338000C3208DD02F1140CC2F10C0201FA0CF0C7
:1003480021FA02F10CE002F11402D8BFC2F1200C2C
:1003580001FA02F120FA0CFCDCBF41EA0C019040E2
:10036800E41AA2BF01EB0451294330BD6FEA04042B
:100378001F3C1CDA0C340EDC04F11404C4F1200216
:1003880020FA04F001FA02F340EA030021FA04F328
:1003980045EA030130BDC4F10C04C4F1200220FA7F
:1003A80002F001FA04F340EA0300294630BD21FABD
:1003B80004F0294630BD94F0000F83F4801306BF83
:1003C80081F480110134013D4EE77FEA645C18BF77
:1003D8007FEA655C29D094EA050F08BF90EA020F0E
:1003E80005D054EA000C04BF1946104630BD91EA06
:1003F800030F1EBF0021002030BD5FEA545C05D109
:100408004000494128BF41F0004130BD14F5800447
:100418003CBF01F5801130BD01F0004545F0FE41BB
:1004280041F470014FF0000030BD7FEA645C1ABFF0
:10043800194610467FEA655C1CBF0B46024650EA27
:10044800013406BF52EA033591EA030F41F4002153
:1004580030BD00BF90F0000F04BF0021704730B5D9
:100468004FF4806404F132044FF000054FF00001AE
:1004780050E700BF90F0000F04BF0021704730B56F
:100488004FF4806404F1320410F0004548BF404244
:100498004FF000013EE700BF42004FEAE2014FEA99
:1004A80031014FEA02701FBF12F07F4393F07F4F74
:1004B80081F06051704732F07F4208BF704793F077
:1004C8007F4F04BF41F40021704730B54FF460748A
:1004D80001F0004521F000411CE700BF50EA01028D
:1004E80008BF704730B54FF000050AE050EA010236
:1004F80008BF704730B511F0004502D5404261EBA6
:1005080041014FF4806404F132045FEA915C3FF4E6
:10051800D8AE4FF003025FEADC0C18BF03325FEA83
:10052800DC0C18BF033202EBDC02C2F1200300FA34
:1005380003FC20FA02F001FA03FE40EA0E0021FA59
:1005480002F11444BDE600BF70B54FF0FF0C4CF447
:10055800E06C1CEA11541DBF1CEA135594EA0C0FF9
:1005680095EA0C0F00F0DEF82C4481EA030621EA34
:100578004C5123EA4C5350EA013518BF52EA03356F
:1005880041F4801143F4801338D0A0FB02CE4FF021
:100598000005E1FB02E506F00042E0FB03E54FF051
:1005A8000006E1FB03569CF0000F18BF4EF0010E49
:1005B800A4F1FF04B6F5007F64F5407404D25FEA45
:1005C8004E0E6D4146EB060642EAC62141EA5551F8
:1005D8004FEAC52040EA5E504FEACE2EB4F1FD0C3A
:1005E80088BFBCF5E06F1ED8BEF1004F08BF5FEAB8
:1005F800500E50F1000041EB045170BD06F000466A
:1006080046EA010140EA020081EA0301B4EB5C0416
:10061800C2BFD4EB0C0541EA045170BD41F480110E
:100628004FF0000E013C00F3AB8014F1360FDEBF33
:10063800002001F0004170BDC4F10004203C35DA0F
:100648000C341BDC04F11404C4F1200500FA05F392
:1006580020FA04F001FA05F240EA020001F0004233
:1006680021F0004110EBD37021FA04F642EB0601A9
:100678005EEA430E08BF20EAD37070BDC4F10C04D3
:10068800C4F1200500FA04F320FA05F001FA04F297
:1006980040EA020001F0004110EBD37041F1000183
:1006A8005EEA430E08BF20EAD37070BDC4F120058E
:1006B80000FA05F24EEA020E20FA04F301FA05F2F6
:1006C80043EA020321FA04F001F0004121FA04F29E
:1006D80020EA020000EBD3705EEA430E08BF20EA6E
:1006E800D37070BD94F0000F0FD101F000464000A8
:1006F80041EB010111F4801F08BF013CF7D041EA2A
:10070800060195F0000F18BF704703F0004652002D
:1007180043EB030313F4801F08BF013DF7D043EAFE
:100728000603704794EA0C0F0CEA135518BF95EAB4
:100738000C0F0CD050EA410618BF52EA4306D1D13B
:1007480081EA030101F000414FF0000070BD50EA5A
:10075800410606BF1046194652EA430619D094EAE4
:100768000C0F02D150EA013613D195EA0C0F05D1CE
:1007780052EA03361CBF104619460AD181EA030122
:1007880001F0004141F0FE4141F470014FF00000DA
:1007980070BD41F0FE4141F4780170BD70B54FF075
:1007A800FF0C4CF4E06C1CEA11541DBF1CEA1355F5
:1007B80094EA0C0F95EA0C0F00F0A7F8A4EB0504D7
:1007C80081EA030E52EA03354FEA013100F08880CE
:1007D8004FEA03334FF0805545EA131343EA126397
:1007E8004FEA022245EA111545EA10654FEA00264C
:1007F8000EF000419D4208BF964244F1FD0404F505
:10080800407402D25B084FEA3202B61A65EB030560
:100818005B084FEA32024FF480104FF4002CB6EB1D
:10082800020E75EB030E22BFB61A754640EA0C009D
:100838005B084FEA3202B6EB020E75EB030E22BFDD
:10084800B61A754640EA5C005B084FEA3202B6EB1E
:10085800020E75EB030E22BFB61A754640EA9C00DD
:100868005B084FEA3202B6EB020E75EB030E22BFAD
:10087800B61A754640EADC0055EA060E18D04FEA6B
:10088800051545EA16754FEA06164FEAC30343EA0B
:1008980052734FEAC2025FEA1C1CC0D111F4801FD8
:1008A8000BD141EA00014FF000004FF0004CB6E7D1
:1008B80011F4801F04BF01430020B4F1FD0C88BF70
:1008C800BCF5E06F3FF6AFAEB5EB030C04BFB6EB7B
:1008D800020C5FEA500C50F1000041EB045170BD6E
:1008E8000EF0004E4EEA113114EB5C04C2BFD4EB9B
:1008F8000C0541EA045170BD41F480114FF0000E1F
:10090800013C90E645EA060E8DE60CEA135594EA9A
:100918000C0F08BF95EA0C0F3FF43BAF94EA0C0F9D
:100928000AD150EA01347FF434AF95EA0C0F7FF412
:1009380025AF104619462CE795EA0C0F06D152EA66
:1009480003353FF4FDAE1046194622E750EA41064A
:1009580018BF52EA43067FF4C5AE50EA41047FF45B
:100968000DAF52EA43057FF4EBAE12E74FF0FF3CC0
:1009780006E000BF4FF0010C02E000BF4FF0010C91
:100988004DF804CD4FEA410C7FEA6C5C4FEA430C0A
:1009980018BF7FEA6C5C1BD001B050EA410C0CBF59
:1009A80052EA430C91EA030F02BF90EA020F0020BB
:1009B800704710F1000F91EA030F58BF994208BF22
:1009C80090422CBFD8176FEAE37040F001007047DF
:1009D8004FEA410C7FEA6C5C02D150EA013C07D136
:1009E8004FEA430C7FEA6C5CD6D152EA033CD3D081
:1009F8005DF8040B704700BF8446104662468C467B
:100A08001946634600E000BF01B5FFF7B7FF0028AD
:100A180048BF10F1000F01BD4DF808EDFFF7F4FFD6
:100A28000CBF012000205DF808FB00BF4DF808ED61
:100A3800FFF7EAFF34BF012000205DF808FB00BF84
:100A48004DF808EDFFF7E0FF94BF012000205DF8A6
:100A580008FB00BF4DF808EDFFF7CEFF94BF01205B
:100A680000205DF808FB00BF4DF808EDFFF7C4FF54
:100A780034BF012000205DF808FB00BF4FEA410C9D
:100A88007FEA6C5C02D150EA013C0AD14FEA430C80
:100A98007FEA6C5C02D152EA033C02D14FF00000BD
:100AA80070474FF0010070474FEA4102B2F1E0434E
:100AB80024BFB3F5001CDCF1FE5C0DD901F0004C3D
:100AC8004FEAC0024CEA5070B2F1004F40EB83008D
:100AD80008BF20F00100704711F0804F21D113F1B9
:100AE8003872BCBF01F00040704741F480114FEAF2
:100AF8005252C2F11802C2F1200C10FA0CF320FA7B
:100B080002F018BF40F001004FEAC1234FEAD32397
:100B180003FA0CFC40EA0C0023FA02F34FEA430301
:100B2800CCE77FEA625307D150EA01331EBF4FF08A
:100B3800FE4040F44000704701F0004040F0FE40A5
:100B480040F40000704700BF53B94AB9002908BFF4
:100B580000281CBF4FF0FF314FF0FF3000F00CB8F9
:100B6800ADF1080C6DE904CE05F0E6FDDDF804E012
:100B7800DDE9022304B07047704700BF0348044B07
:100B8800834202D0034B03B1184770475C00002032
:100B98005C000020000000000548064B1B1AD90F16
:100BA80001EBA301491002D0034B03B1184770476A
:100BB8005C0000205C0000200000000010B5064C1E
:100BC800237843B9FFF7DAFF044B13B10448AFF3B6
:100BD80000800123237010BD600000200000000089
:100BE800FC69000808B5054B1BB105490548AFF37A
:100BF8000080BDE80840FFF7CFBF00BF000000003D
:100C080064000020FC6900082DE9F04F2DED028BEF
:100C1800824B834ADFED836A9FED837A87B005466E
:100C280003F5006433F8021F07EE901AF8EE677AAE
:100C3800A34267EEA67A67EE877AE2EC017AF1D1F1
:100C48004FF48061684604F04FFB0023774A294639
:100C5800684604F02DFC4FF480627549734805F02E
:100C680005F8744A9FED747A40F24F130027F2ECAE
:100C7800017AF4EEC77AF1EE10FAC8BF9FB203F119
:100C88000103C8BFB0EE677AB3F5AD7FEFD1684E08
:100C98009FED6B6A06EB870252ED017AD2ED006A8E
:100CA80092ED017A67EE867A66EE866A27EE067A14
:100CB80066EEA66A67EEA77A27EE077A77EEA67A37
:100CC800BB4677EE877A40F24F1517EE900AFFF78A
:100CD800E3FB41EC100B05F0DFFB51EC100BFFF7C9
:100CE800E3FE06F5A76308EE100AF2EE006A05E0D7
:100CF80095B2142DA3F1040300F08581D3ED017A98
:100D0800F4EEE67AF1EE10FA05F1FF32F0DD93ED3C
:100D1800007AF4EEC77AF1EE10FAE9DD93ED026A93
:100D2800F4EEC67AF1EE10FAE2DDDFED456A27EE61
:100D3800267A67EEA67A26EE266A27EE077A67EE07
:100D4800A77A26EE066A77EE277A6C1F77EE867A00
:100D5800A4B217EE900AFFF79FFB41EC100B05F0C9
:100D68009BFB51EC100BFFF79FFE142C08EE900A2A
:100D780021D9A4F1150292B2A21A631CF2EE006AFC
:100D880006EB830306EB820273ED017AF4EEE67A52
:100D9800F1EE10FA0DDD13ED017AF4EEC77AF1EEFB
:100DA80010FA06DD93ED016AF4EEC67AF1EE10FA58
:100DB80007DC9342E8D116ED017AD6ED007A96ED7C
:100DC800016ADFED1F6A27EE267A67EEA67A26EE1D
:100DD800266A27EE077A67EEA77A26EE066A77EE86
:100DE800277A77EE867A17EE900AFFF755FB0022EE
:100DF800002380468946FFF741FE40B900220023C0
:100E080040464946FFF726FE002800F02F810B4C8C
:100E1800F2EE006A234640F263181BE07A100020C5
:100E28007C000020333353400000803A7C200020AF
:100E38007C180020B81D002000000000041E0020BF
:100E48000000003B1FFA82F8B8F5FB7F03F10403AA
:100E580000F00381D3ED017AF4EEE67AF1EE10FAB0
:100E680008F10102EEDD93ED007AF4EEC77AF1EEB7
:100E780010FAE7DD93ED026AF4EEC67AF1EE10FAA5
:100E8800E0DD5FED116A27EE267A67EEA67A27EE97
:100E9800077A26EE266A67EEA77A26EE066A77EEC6
:100EA800277A77EE867A17EE900AFFF7F5FA41EC83
:100EB800100B05F0F1FA51EC100BFFF7F5FD6E4938
:100EC8006E4BD1F800E006EE100AB2EE007AA3F5F8
:100ED800966270464FF0000CD3ED017AF4EEC77AB3
:100EE800F1EE10FA10DDD3ED006AF4EEE76AF1EEE8
:100EF80010FA09D5D3ED026AF4EEE76AF1EE10FABA
:100F080044BF01304FF0010C043B9342E4D1BCF1E3
:100F1800000F08BF704606F2D476B2EE007A034698
:100F28000022D4ED017AF4EEC77AF1EE10FA0FDD63
:100F3800D4ED006AF4EEE76AF1EE10FA08D5D4EDC4
:100F4800026AF4EEE76AF1EE10FA44BF01330122B7
:100F58000434B442E5D178EE868ADFED497A494E09
:100F6800C8EE886A002A08BF03465A1C464B0A6026
:100F78000024B6EE006A66EEA77AC3ED006A77EE43
:100F8800867A424BFDEEE77AB2EE047A17EE900AC3
:100F980018804FF4A57333603D4840F2491305E0CB
:100FA8009A46013BDB2B4FF0010429D070ED017A02
:100FB800F4EEC77AF1EE10FAF2DD0CB1C6F800A033
:100FC800BD4217D2334B45451F6010D83D46A84552
:100FD8000BD3012A02D00B68032B01D100230B602D
:100FE80007B0BDEC028BBDE8F08F2A4BAB46C3F8C7
:100FF80000B0EEE7B845EAD2264BB8461F60E6E7F0
:10100800DC233360DCE79FED246A56ED016AD6EDF8
:10101800007A96ED017A66EE866A67EE867A27EEA2
:10102800067A66EEA66A67EEA77A27EE077A77EE63
:10103800A67A4FF6FB7477EE877A002517EE900AAA
:10104800FFF72AFA41EC100B05F026FA51EC100BC9
:10105800FFF72AFD08EE900A8BE616ED017AD6ED29
:10106800007A96ED016A4FF000080AE749EC108B08
:1010780005F012FACBE600BF7C300020A01D00204E
:101088000000C842843000208C30002080300020CE
:10109800A81D0020883000200000003B0B4BDFED2E
:1010A8000C6A9FED0C7A821E03F5805132F8020F0C
:1010B80007EE900AF8EE677A67EEA67A67EE877A07
:1010C800E3EC017A8B42F1D1704700BF7C0000202D
:1010D800333353400000803A10B594B038220021D1
:1010E80006A805F0A7F900234FF40070CDE90133F5
:1010F800CDE90333059301F015F99FED137B012228
:10110800022303240F9206A80C228DED067BCDE95D
:101118000D34CDE91023CDE9123300F051F908B1AF
:1011280072B6FEE701460F22A02301A8CDE90124EB
:10113800CDE90331059100F0C1FB08B172B6FEE7B5
:1011480014B010BDAFF300800100000000000100E2
:1011580080B500F001F9FFF7BFFF00F049F803F090
:10116800AFFF01F0BFFC01F081FD02F077FF03F053
:1011780033F801F037FD1648164D174F174EDFF8B4
:10118800648001F0BFF913491548012202F0B4FE4A
:10119800022000F003F92C78012CF9D139464FF4DC
:1011A8008062304603F026FE142000F0F7F830463F
:1011B80003F0D0FE3846FFF771FF4046FFF724FDE5
:1011C8000023044906482B70224602F095FEDFE70B
:1011D800E8320020903000207C1000207C32002073
:1011E800F03000207C00002072B6FEE7000000000E
:1011F80000B500228BB0CDE90422CDE90622204BB0
:101208000892D96C41F00401D964D86C00F004004C
:1012180000900098D86C40F02000D864D86C00F09A
:10122800200001900198D86C40F00100D864D86C77
:1012380000F0010002900298D86C40F00200D864D7
:10124800DB6C03F00203039340214FF09040039BB3
:1012580000F0B4FE9FED087B0022002304A94FF0A4
:1012680090408DED047BCDE9062300F09FFD0BB087
:101278005DF804FBAFF300804000000001000000AF
:1012880000100240FEE700BFFEE700BFFEE700BF18
:10129800FEE700BFFEE700BF704700BF704700BF12
:1012A800704700BF00F068B8014800F0EDBF00BF0C
:1012B8001C320020014803F0EBB800BF7C3200204C
:1012C800014801F02DBA00BFE8320020014801F0C2
:1012D80097BE00BFF03000200B4B1A6E42F001029F
:1012E80082B01A661A6E02F001020092009A9A6D94
:1012F80042F080529A659B6D03F080530193019BE5
:1013080002B001F081B800BF0010024038B50F4BA1
:101318001B680BB9012038BD0D494FF47A72054698
:10132800B2FBF3F30868B0FBF3F001F0D1F8044620
:101338000028EFD10F2DEDD8024629464FF0FF3097
:1013480001F07CF8034B20461D6038BD00000020EA
:10135800080000200400002010B5032001F05CF80C
:101368000F20FFF7D3FF10B10124204610BD04461B
:10137800FFF7B2FF204610BD034A04491368096805
:101388000B441360704700BF943000200000002019
:10139800014B1868704700BF9430002038B50446E8
:1013A800FFF7F6FF631C054602D0044B1B681C447C
:1013B800FFF7EEFF401BA042FAD338BD0000002023
:1013C800002800F0BD812DE9F0410368D90782B0FB
:1013D800044612D5A6498A68C96802F00C020C2A8C
:1013E80000F0D080082A40F0D280A14A1268920307
:1013F80003D56268002A00F037819A0722D59C4AF3
:101408009368D26803F00C030C2B00F0F880042BCF
:1014180040F0FA80964B1B685B0503D5E368002B08
:1014280000F02281924A20695368924923F0FE43D2
:1014380043EA006353600868FFF768FF002840F03C
:10144800138123681A0719D56369894D002B00F0A9
:10145800C280D5F8943043F00103C5F89430FFF703
:1014680097FF064605E0FFF793FF801B022800F26E
:101478001781D5F894309B07F5D523685D0741D5CA
:101488007B4B9A6DD00000F10F819A6D42F080522B
:101498009A659B6D03F080530193019B0125764E5D
:1014A8003368D90540F12E81A368012B00F0FE8036
:1014B800052B00F084816E4ED6F8902022F00102B0
:1014C800C6F89020D6F8902022F00402C6F89020A2
:1014D800002B40F0F280FFF75BFF41F288380746A7
:1014E80005E0FFF755FFC01B404500F2D980D6F84C
:1014F80090309907F5D425B15D4A936D23F0805358
:10150800936523689A0618D5A369594D002B00F0F6
:10151800E580D5F8983043F00103C5F89830FFF717
:1015280037FF064605E0FFF733FF801B022800F26D
:10153800B780D5F898309B07F5D5E369F3B14C4DE2
:10154800AA6802F00C020C2A00F04781022B2B68D3
:1015580023F080732B6000F0F580FFF719FF044635
:1015680005E0FFF715FF001B022800F299802B68A1
:101578009B01F6D4EA68414B1340EB60002002B0AF
:10158800BDE8F08101F0030103293FF42EAF636841
:10159800B3F5803F55D0B3F5A02F00F0C480344D8B
:1015A8002A6822F480322A602A6822F480222A607B
:1015B800002B4BD1FFF7ECFE064604E0FFF7E8FEF0
:1015C800801B64286CD82B689903F7D423689A0782
:1015D8007FF538AF13E7D5F8943023F00103C5F849
:1015E8009430FFF7D5FE064604E0FFF7D1FE801BD6
:1015F800022855D8D5F894309F07F6D43DE702F075
:101608000302022A3FF406AFE368194D002B37D0D6
:101618002B6843F480732B60FFF7BAFE064604E09C
:10162800FFF7B6FE801B02283AD82B685F05F7D56E
:101638006B68226923F0FE4343EA02636B60236808
:1016480000E70B4A136843F480331360FFF7A0FEEA
:10165800074E054604E0FFF79BFE401B64281FD891
:1016680033689F03F7D5B1E7012002B0BDE8F081E8
:10167800001002400400002000700040FCFFEEFE55
:101688002B6823F480732B60FFF782FE06462B68D5
:1016980059057FF5D6AEFFF77BFE801B0228F6D9E9
:1016A800032002B0BDE8F0810025F8E6654AD2F8CB
:1016B800903043F00103C2F89030FFF769FE614FA4
:1016C800064641F2883804E0FFF762FE801B404579
:1016D800E6D8D7F890309B07F6D50CE7D5F89830C0
:1016E80023F00103C5F89830FFF752FE064604E0E0
:1016F800FFF74EFE801B0228D2D8D5F898309F07F6
:10170800F6D41AE7336843F480733360FFF740FE7A
:1017180007463368DA053FF5C7AEFFF739FEC01B49
:101728000228F6D9BCE703F18043A3F53C331A68D5
:1017380042F480221A601A6842F480321A6085E7FF
:1017480001207047FFF724FE064604E0FFF720FE5D
:10175800801B0228A4D82B689901F7D4E9683A4B72
:10176800226A606A0B401343D4E90A1243EA012350
:1017780043EAC263D4E90C120138490843EA00136A
:101788000139520843EA4153013A43EA4263EB60A4
:101798002B6843F080732B60EB6843F08073EB6039
:1017A800FFF7F6FD274D044605E0FFF7F1FD001BA6
:1017B80002283FF675AF2B689A01F6D5DEE6214B75
:1017C800D3F8902042F00402C3F89020D3F8902078
:1017D80042F00102C3F890206FE7012B3FF444AFB9
:1017E800EB68226A03F0030191427FF43DAF616A1E
:1017F80003F0F0020139B2EB011F7FF435AFA16AA3
:1018080003F4FE42B2EB012F7FF42EAFE16A03F03E
:101818007842B2EBC16F7FF427AF226B520803F412
:10182800C001013AB1EB425F7FF41EAF626B520810
:1018380003F0C063013AB3EB426F14BF01200020EC
:101848009DE600BF001002400C809F01184B9A686B
:1018580002F00C02042A26D09A6802F00C02082A28
:1018680023D09A6802F00C020C2A01D0002070479D
:10187800D968DA68D86801F003010329C2F30312B2
:10188800C0F306200CBF0B4B0B4B0132B3FBF2F33A
:1018980003FB00F0064BDB68C3F3416301335B00D5
:1018A800B0FBF3F07047044870470248704700BF28
:1018B8000010024000127A000024F400002800F012
:1018C800EE80784A2DE9F843136803F00F038B4242
:1018D8000D4604460CD2136823F00F030B43136024
:1018E800136803F00F038B4202D00120BDE8F88390
:1018F8002368DF0769D56768032F00F0A0806A4B6B
:10190800022F1B6800F097805B05EED5FFF79EFF5E
:10191800664B984240F2C080634A936823F0F00314
:1019280043F0800393604FF080095F4EB36823F063
:1019380003033B43B360FFF72BFD41F288380746AA
:1019480004E0FFF725FDC01B404571D8B368626805
:1019580003F00C03B3EB820FF3D123689F0736D44F
:10196800B9F1000F03D0B36823F0F003B3604D4E14
:10197800336803F00F03AB4246D823685A0706D5ED
:101988004949E0688A6822F4E06202438A601B07DA
:1019980007D5454A2169936823F4605343EAC10394
:1019A8009360FFF753FF404A414C92684149C2F3A4
:1019B80003120346A25C404802F01F02D3400B60AA
:1019C8000068BDE8F843FFF7A1BC9E07CFD55807CC
:1019D80004D535498A6842F4E0628A60190706D559
:1019E800314A936823F47C5343F4E06393602E4AAE
:1019F800A16893682B4E23F0F0030B439360336880
:101A080003F00F03AB42B8D9336823F00F032B431D
:101A18003360FFF7BDFC41F288380746336803F0AE
:101A28000F03AB42A9D0FFF7B3FCC01B4045F5D963
:101A38000320BDE8F8839A033FF568AF55E71A4AD3
:101A4800116888017FF551AFD068D168D268174E08
:101A580000F003000328C1F303110CBF174818480E
:101A68000131B0FBF1F11048C2F3062201FB02F28A
:101A7800C168C1F3416101314900B2FBF1F2B242E0
:101A88000AD9826812F0F00F3FF446AF990703D5E0
:101A9800A368002B3FF440AF4FF0000945E7012051
:101AA800704700BF002002400010024000B4C40488
:101AB800206A0008080000200400002000127A00B4
:101AC8000024F400054B064A9B680649C3F3022329
:101AD8000868D35C03F01F03D84070470010024029
:101AE800186A000808000020054B064A9B6806494A
:101AF800C3F3C2230868D35C03F01F03D8407047C0
:101B080000100240186A0008080000202DE9F04182
:101B18000368044613F4002082B052D0A14B9A6D9A
:101B2800D50040F1088100279F4D2B6843F480734E
:101B38002B60FFF72DFC064605E0FFF729FC831B09
:101B4800022B00F203812B68D805F6D5954D226C3F
:101B5800D5F8903013F4407326D0934224D0D5F8AA
:101B68009010D5F8903043F48033C5F89030D5F80C
:101B7800903023F48033C5F8903021F44073C907BE
:101B8800C5F8903010D5FFF703FC41F288380646B7
:101B980005E0FFF7FDFB801B404500F2D780D5F834
:101BA80090309B07F5D5226C7E49D1F8903023F40C
:101BB80040731343C1F8903023680020002F40F091
:101BC800CA80DE0708D577496568D1F8882022F0F1
:101BD80003022A43C1F888209D0708D57149A568E2
:101BE800D1F8882022F00C022A43C1F8882059072E
:101BF80008D56C49E568D1F8882022F030022A43DC
:101C0800C1F888201A0708D566492569D1F88820BF
:101C180022F0C0022A43C1F888209F0608D56149EE
:101C28006569D1F8882022F440622A43C1F88820E7
:101C38005E0608D55B49A569D1F8882022F4405290
:101C48002A43C1F888201D0608D55649E569D1F808
:101C5800882022F440422A43C1F88820D90508D5B3
:101C68005049256AD1F8882022F440322A43C1F825
:101C780088209A0508D54B49656AD1F8882022F44E
:101C880040222A43C1F888205F050BD54549A56A3B
:101C9800D1F8882022F440122A43B5F5801FC1F8F4
:101CA80088205ED01E050BD53E49E56AD1F888200C
:101CB80022F440022A43B5F5800FC1F8882055D098
:101CC800DD040BD53749256BD1F8882022F0407206
:101CD8002A43B5F1807FC1F888204CD099040BD5F0
:101CE8003049656BD1F8882022F040622A43B5F16B
:101CF800006FC1F8882043D05A040BD52949A56B39
:101D0800D1F8882022F040622A43B5F1006FC1F86B
:101D180088203AD01B040BD5224AE16BD2F88830D0
:101D280023F040530B43B1F1805FC2F8883031D0C3
:101D380002B0BDE8F0819A6D42F080529A659B6DC1
:101D480003F080530193019B0127EDE623680320EC
:101D5800002F3FF436AF13498A6D22F080528A650E
:101D68002FE7CA6842F48012CA609BE7CA6842F447
:101D78008012CA60A4E7CA6842F48012CA60ADE75C
:101D8800CA6842F48012CA60B6E7CA6842F4801290
:101D9800CA60BFE7D36843F48033D36002B0BDE8BC
:101DA800F08100BF00100240007000402DE9F04FA4
:101DB8000C6885B0002C00F0888000234FF0010BE0
:101DC8000BFA03FE1EEA040A7AD04D6805F0030CEC
:101DD8005A0003260CF1FF3806FA02F7B8F1010F92
:101DE8006FEA070774D9BCF1030F40F0CC800CFAF6
:101DF80002F2D0F800C00CEA07073A4315F4403F56
:101E080002605DD0664F3A6E42F001023A663A6E61
:101E180002F001020392039A23F0030202F18042C6
:101E280002F5803203F0030C97684FEA8C0C0F26FA
:101E380006FA0CFEB0F1904F27EA0E071CD0594E57
:101E4800B04200F08B80584EB04200F08E80DFF830
:101E580060E170457BD0DFF85CE1704500F08C8074
:101E6800DFF854E170450CBF4FF0050E4FF0060E39
:101E78000EFA0CFC47EA0C0797604C4A9268EE028F
:101E88006FEA0A07494E54BF3A404AEA0202B26072
:101E9800F268AE02454E54BF3A404AEA0202F26086
:101EA8007268AE03414E54BF3A404AEA0202726079
:101EB8003268ED033D4D54BF3A404AEA02022A60B7
:101EC800013334FA03F27FF47BAF05B0BDE8F08F3D
:101ED800D0F80890CE6809EA070906FA02F848EA35
:101EE8000908C0F80880D0F804808E6828EA0E082F
:101EF800C5F3001E0EFA03FE4EEA080EC0F804E011
:101F0800D0F80C8006FA02FE08EA07084EEA080E26
:101F1800BCF1020FC0F80CE07FF469AF0E694FEA1C
:101F2800D30803F0070E00EB88084FEA8E0E06FA76
:101F38000EF6D8F8209001960F2606FA0EFE019E9E
:101F480029EA0E0946EA090EC8F820E04FE74FF0E3
:101F5800030E0EFA0CFC47EA0C078DE74FF0010E52
:101F68000EFA0CFC47EA0C0786E74FF0020E0EFA51
:101F78000CFC47EA0C077FE74FF0040E0EFA0CFC46
:101F880047EA0C0778E7D0F80C808E6808EA07085B
:101F980006FA02FE4EEA080EC0F80CE027E700BF7A
:101FA80000100240000400480008004800040140F6
:101FB800000C004800100048001400480AB1816174
:101FC80070478162704700BF002876D0F0B43C4A61
:101FD8000468944203465CD93A493B4A3B48214449
:101FE800A2FB01210909890002229D6883F82520A6
:101FF800DA68354E364FC3E9100118692A4302439F
:102008005869024398690243D8690243E0B2083824
:10201800A6FB0060266826F4FF4C1E6A2CF0700CA4
:10202800324342EA0C022260254E2A4AC0F30410C9
:10203800B44298BF3A4606F27946012404FA00F001
:10204800DE64B5F5804F01EB020618659E644FEA21
:10205800910127D05E68F5B2013E032E42F8215067
:10206800C7F8840024D81C4A1C482A449200013D21
:10207800AC400021C3E91520DC651160184A54649E
:1020880000200122D86383F8240083F82520F0BCBF
:10209800704714490C4A14482144A2FB012109093C
:1020A8008900A1E700245C6042F82140C7F8840059
:1020B8000022C3E91522DA65E2E70120704700BF74
:1020C80007040240F8FBFDBFCDCCCCCC0004024095
:1020D80000080240200802403F82001040090240E8
:1020E80000090240F8FFFDBF00000240F0B490F87C
:1020F8002440012C09D0012480F8244090F8254080
:10210800012C05D0002380F824300220F0BC704751
:10211800022480F825400024C4630468C66C25683E
:1021280025F001052560D0E91475776015B1D0E96F
:1021380016677760466C076C06F01F0C012606FAD6
:102148000CF67E6063608368102B036B0BBFA26084
:10215800A160E160E260BBB1236843F00E03236035
:10216800836C1A68D20303D51A6842F480721A6025
:102178001DB12B6843F480732B60236843F001037F
:1021880000202360F0BC7047236823F00403236019
:10219800236843F00A032360E2E700BF90F8252094
:1021A800022A034609D00422C26301210022012029
:1021B80083F8251083F8242070470268596C30B4DE
:1021C800846C10681D6C20F00E001060206820F4EC
:1021D80080702060106820F00100106001F01F017D
:1021E80001228A40D3E91441D86C6A60446031B155
:1021F8000A68D3E9160422F480720A604460012157
:10220800002283F8251083F82420002030BC704772
:1022180038B590F82530022B09D00123042100227B
:10222800C16380F8242080F82530184638BD03683B
:10223800846C1968426C056C21F00E0119601968EC
:1022480021F0010119602368C16C23F480732360B5
:1022580002F01F0201239340D0E914426B604C60E6
:1022680032B11368D0E9161423F4807313604C60FC
:10227800836B0121002280F8251080F8242003B107
:102288009847002038BD00BF70B4436C066C0568E1
:1022980031682C6803F01F0304229A400A420ED0CA
:1022A80014F0040F0BD02B689B0603D42B6823F083
:1022B80004032B60036B7260CBB170BC1847022219
:1022C8009A400A4215D014F0020F12D02B689906D2
:1022D80006D42B6823F00A032B60012380F82530ED
:1022E800C36A7260002180F82410002BE5D170BC0D
:1022F800704708229A400A42F9D02207F7D52A687F
:10230800416B22F00E022A60012202FA03F3002434
:102318007360C26380F8244080F825200029E6D045
:1023280070BC0847354A136860B903F4C063B3F555
:10233800806FD2F880301BD023F48073C2F88030CD
:1023480000207047B0F5007F06D023F4C06343F443
:10235800806313600020704703F4C063B3F5806F97
:10236800D2F8803029D043F48073C2F88030F1E786
:1023780023F48073C2F8803013682148214923F47C
:10238800C06343F4007313600368322000FB03F357
:102398005069A1FB03139B0C400503F1010306D50B
:1023A80000E023B15169490503F1FF33F9D4134B18
:1023B8005B695B05CED50320704743F48073C2F890
:1023C800803013680E480F4923F4C06343F4007348
:1023D80013600368322000FB03F35069A1FB031369
:1023E8009B0C400503F10103E1D501E0002BDED091
:1023F8005169490503F1FF33D9D5F7E7007000406B
:102408000800002083DE1B43024A936843F480439C
:1024180093607047007000400749CA6803024FF68E
:10242800FF0003F4E0630240134343F0BF6343F447
:102438000033CB60704700BF00ED00E01B4BDB684A
:10244800C3F3022300B5C3F1070EBEF1040F03F175
:10245800040C28BF4FF0040EBCF1060F1CD9A3F1E1
:10246800030C4FF0FF3303FA0CF322EA03024FF098
:10247800FF3303FA0EF321EA030303FA0CF31343C1
:102488001B010028DBB20ADB00F1604000F5614067
:1024980080F800335DF804FB00229446E7E7044A1D
:1024A80000F00F00024413765DF804FB00ED00E035
:1024B800FCEC00E0002807DB044A4109012300F096
:1024C8001F00834042F82130704700BF00E100E060
:1024D8000138B0F1807F01D30120704710B44FF06C
:1024E800E023074C58614FF0F00C84F823C0002219
:1024F800072110469A615DF8044B1961704700BFC7
:1025080000ED00E090F83D30012B1FD10368154A1B
:102518000221934280F83D101AD0B3F1804F17D0B2
:10252800A2F59432934213D002F5806293420FD001
:1025380002F5963293420BD002F54062934207D0DF
:102548001A6842F001021A600020704701207047A3
:102558009968054A0A40062AF6D0B2F5803FEFD1BD
:10256800F2E700BF002C01400700010090F83C2072
:10257800012A73D0034630B402680224012083F88C
:102588003D4083F83C0095685D4C2C4094600C6895
:10259800702C00F08F8027D8502C61D02DD8402C7B
:1025A80040F098804868CC68116A21F00A01084315
:1025B800116A21F001011162916921F0F00141EAEB
:1025C800041191611062916821F4401121F07001A9
:1025D80041F04701916000200121002283F83D105D
:1025E80083F83C2030BC7047B4F5005F52D021D846
:1025F800B4F5805018BF0120EEE7602CECD1486894
:10260800CC68116A21F0A00141EA0011106A20F09B
:1026180010001062906920F4704040EA0430906124
:102628001162916821F4401121F0700141F06701B5
:102638009160D0E733498C4206D054D8B4F1101FCA
:1026480002D010398C42C7D1916821F4401121F091
:102658007001214341F007019160BCE702207047F7
:102668004868CC68116A21F00A010843116A21F010
:1026780001011162916921F0F00141EA04119161AF
:102688001062916821F4401121F0700141F0570166
:102698009160A0E7D1E9015094682843CD6824F4FB
:1026A8007F4140EA052008439060916841F48041E9
:1026B800916090E7D1E9015094682843CD6824F4EB
:1026C8007F4140EA052008439060916841F0770116
:1026D800916080E780D8202CB6D00CD834F0100157
:1026E8007FF47AAFB0E708498C42ADD030318C42E4
:1026F8007FF472AFA8E7302CA6D001206CE700BFAA
:102708008800CEFF3000100040001000704700BF66
:10271800704700BF704700BF704700BF704700BFD9
:10272800036870B5DE681C69A207054601D5B107C4
:1027380068D4630701D5700754D4210701D532073F
:102748003ED4E00601D5F10626D4E20701D5F30709
:102758007AD414F4025F62D030067DD4600602D5C4
:10276800710600F18480A20602D5B30600F18780C5
:10277800E00202D5F10200F18A80A20202D5B3027A
:1027880000F18D80600202D5710200F19080220272
:1027980001D533024FD470BD2B686FF010021A6157
:1027A80008222A77DB6913F4407F284640F0968098
:1027B800FFF7AEFF2846FFF7AFFF00232B77C4E7EC
:1027C8002B686FF008021A6104222A77DB699B07DD
:1027D800284674D1FFF79CFF2846FFF79DFF00238A
:1027E8002B77AEE72B686FF004021A6102222A7772
:1027F8009B6913F4407F284664D0FFF78BFF0023C2
:102808002B779AE76FF002021A61012202779B691F
:102818009A075DD0FFF77EFF00232B7789E7E20553
:102828009CD533069AD52B686FF480721A612846B6
:1028380000F044F992E72B686FF4000228461A6109
:10284800BDE8704000F042B92B686FF001021A61D0
:102858002846FFF75BFF7CE72B686FF402521A618A
:10286800284600F029F9E1057FF578AFDBE72B680A
:102878006FF040021A612846FFF750FF73E72B6894
:102888006FF020021A61284600F014F970E72B68EF
:102898006FF480121A61284600F012F96DE72B6870
:1028A8006FF400121A61284600F00CF96AE72B68E9
:1028B8006FF480021A61284600F006F967E7FFF70F
:1028C80029FF8CE7FFF724FF2846FFF725FF96E747
:1028D800FFF71EFF2846FFF71FFF9DE7FFF71AFFC8
:1028E8006BE700BF2F4A0368904210B423D0B0F1C1
:1028F800804F3FD0A2F5943290423BD002F58062DF
:10290800904237D002F59632904214D0264A90422F
:1029180042D002F5806290423ED002F58062904239
:102928003AD00A688C68496923F080030B43036036
:10293800C462826212E04C68CA6823F070032343C1
:1029480023F4407313434A6923F08003134303605D
:102958008B68C3620B6883620B690363012343615D
:102968000369DB0703D5036923F0010303615DF8FD
:10297800044B70474A68CC6823F07003134323F470
:1029880040734A69234323F080038C6813430A6821
:102998000360C4628262E1E7CC684A6923F4407349
:1029A8002343D1E7002C01400040014070B310B52B
:1029B80090F83D30044603F0FF0213B3214602238A
:1029C80084F83D3051F8040BFFF78CFF012384F89D
:1029D800483084F83E3084F83F3084F8403084F83A
:1029E800413084F8423084F8433084F8443084F825
:1029F800453084F8463084F8473084F83D3000206C
:102A080010BD80F83C2001F021FCD7E70120704779
:102A180090F83C30012B46D070B40246234E006833
:102A2800022382F83D30B04243680D68846824D0A0
:102A380006F50066B0422BD023F0007323F0700334
:102A48002B43B0F1804F43600AD0194B984207D00E
:102A580003F58063984203D003F59C33984204D170
:102A68008B6824F080041C4384600020012382F8D2
:102A78003D3082F83C0070BC70474E6823F4700308
:102A8800334323F0007323F070032B434360E7E7DD
:102A98004E6823F47003334323F0007323F070036C
:102AA8001D434560DCE70220704700BF002C014051
:102AB80000040040704700BF704700BF704700BF68
:102AC800704700BF704700BF704700BF704700BF26
:102AD800034AD2F8883043F47003C2F8883070474C
:102AE80000ED00E010B51848184C002340F207111B
:102AF8000122C0E90041C0E90232C0E90433C0E95B
:102B08000633036200F084F950B90F48002100F041
:102B1800D9F968B90C48002100F0FEF980B910BD58
:102B2800FEF762FB0848002100F0CCF90028F1D03C
:102B3800FEF75AFB0448002100F0EEF90028EED019
:102B4800BDE81040FEF750BB9830002000780040E8
:102B580010B5044698B00021442207A8CDE9021117
:102B6800CDE90411069103F065FC1B4B22689A42DB
:102B780001D018B010BD4FF4807307A80793FEF773
:102B8800C5FF10BB154C1648E36C43F00403E3641F
:102B9800E36C9FED0F7B03F0040300930823009A76
:102BA80006930022002302A9CDE904238DED027BC0
:102BB800FFF7FCF8A36D43F08043A365A36D03F012
:102BC80080430193019B18B010BDFEF70DFBD9E7B8
:102BD80000030000120000000078004000100240CE
:102BE8000008004810B51F481F4C00234FF4165129
:102BF8000C22C0E90041C0E90233C0E90432C0E94F
:102C08000633C0E90833836201F0A4F870B91548A7
:102C1800002101F0D7F988B91248002101F0F8F92C
:102C2800A0B9104801F0B0F9B8B910BDFEF7DCFA48
:102C38000C48002101F0C6F90028EDD0FEF7D4FABF
:102C48000848002101F0E4F90028EAD0FEF7CCFAA0
:102C5800044801F099F90028E7D0BDE81040FEF7D4
:102C6800C3BA00BF883100200044004010B51F4897
:102C78001F4C00234FF4E1310C22C0E90041C0E9A8
:102C88000233C0E90432C0E90633C0E9083383627D
:102C980001F060F870B91548002101F093F988B97E
:102CA8001248002101F0B4F9A0B9104801F06CF9FC
:102CB800B8B910BDFEF798FA0C48002101F082F966
:102CC8000028EDD0FEF790FA0848002101F0A0F99D
:102CD8000028EAD0FEF788FA044801F055F90028E0
:102CE800E7D0BDE81040FEF77FBA00BFF030002003
:102CF800004800400000000010B504469AB00021CA
:102D0800442209A8CDE90411CDE90611089103F080
:102D180091FB3B4A2368934204D03A4A93422CD011
:102D28001AB010BD022309A80993FEF7EFFE002888
:102D380054D1354B9A6D42F400329A659A6D02F47B
:102D480000320092009ADA6C9FED277B42F0010274
:102D5800DA64DB6C8DED047B9FED257B03F00103CA
:102D6800019304A907234FF090408DED067B019A4B
:102D78000893FFF71BF81AB010BD042309A809939C
:102D8800FEF7C4FE68BB204B20489A6D42F48022AF
:102D98009A659A6D02F480220292029ADA6C9FED8B
:102DA800167B42F00202DA64DB6C8DED047B9FED4A
:102DB800107B03F00203039304A907238DED067B20
:102DC8000893039AFEF7F2FF002211462720FFF727
:102DD80035FB2720FFF76EFB1AB010BDFEF704FA8B
:102DE800A7E7FEF701FACEE70C000000020000009A
:102DF8000000000000000000000C000002000000BD
:102E08000044004000480040001002400004004810
:102E1800002854D010B590F84130044603F0FF0262
:102E2800002B47D02368242284F84120196862685F
:102E380021F0010122F0706219601A619A68E16854
:102E480022F4004201299A60A26809D042F404429F
:102E580002299A6007D15A6842F400625A6006E073
:102E680042F400429A605A6822F400625A60596833
:102E7800226941F0007141F4004159606169D868E4
:102E88000A43A16920F4004042EA0122E169D860BE
:102E9800206ADA6001431960196841F0010119607C
:102EA80000222023626484F84130226384F842209F
:102EB800104610BD80F84020FFF74AFEB2E7012017
:102EC800704700BF90F84120202A23D15FFA82FC86
:102ED80090F84020012A03461CD00268242000B53F
:102EE80083F84100106820F001001060106820F499
:102EF8008050106010680143116011684FF0000E97
:102F080041F00101116083F841C083F840E0704648
:102F18005DF804FB0220704790F84120202A22D156
:102F280000B55FFA82FE90F84020012A03461CD0C3
:102F38000268242083F84100106820F00100106026
:102F4800106820F4706040EA0121116011684FF0A8
:102F5800000C41F00101116083F841E083F840C0A2
:102F680060465DF804FB0220704702205DF804FB10
:102F780010B4026852E8003F23F4907342E800312D
:102F88000029F7D1144C02F1080353E8003F23400D
:102F980002F1080C4CE800310029F4D1C36E012B72
:102FA80008D000232022C0F88C205DF8044B43672A
:102FB800C366704752E8003F23F0100342E800312F
:102FC8000029EED052E8003F23F0100342E8003118
:102FD8000029EFD1E5E700BFFEFFFFEF704700BF14
:102FE800704700BF704700BF08B5806A0023A0F88B
:102FF8005E30A0F85630FFF7F5FF08BD704700BFF8
:103008000368DA6940F60F0C12EA0C0F2DE9F0415B
:103018001D689968044632D1960606D505F0200643
:1030280001F080573E4340F0E980E06E012800F04F
:10303800AC80D70219D4100606D501F4000105F0BA
:103048008000084340F0E180570602D56E0600F183
:10305800C480100202D5690000F10481D30102D5B1
:10306800002DC0F23581BDE8F0814E02E3D54FF462
:10307800801220461A62BDE8F04100F07FBFB548D3
:1030880008401E4640F0E380B34F3D42CDD0D707FD
:103098001AD5EF0540F1C18001271F62D4F890705E
:1030A80047F00107C4F89070970740F1B980CF073F
:1030B8000AD502271F62D4F8907047F00407C4F8B5
:1030C8009070570700F1B28017070BD505F020075D
:1030D800074307D008201862D4F8900040F0080091
:1030E800C4F8900017050AD5680108D54FF40060A8
:1030F8001862D4F8903043F02003C4F89030D4F824
:103108009030002BAFD0930606D505F0200501F0CE
:1031180080510D4340F09380D4F89020B36802F0BA
:10312800280203F0400353EA0205204600F0D58048
:10313800FFF71EFFB3685F0640F1908006F10803B1
:1031480053E8003F23F0400306F1080141E800324C
:1031580062B1236803F1080252E8002F22F040020E
:1031680003F1080040E800210029F3D1D4F88000D9
:10317800002873D0794B8363FFF74AF800283FF49F
:1031880072AFD4F88000836B3CE0D6067FF551AF70
:10319800E8067FF54EAF10221A629A68510640F190
:1031A800A180D4F8800001684A6892B2002A3FF4EE
:1031B8005AAFB4F85C5095427FF655AFA4F85E203C
:1031C8000A68920653D502232367B4F85E30E91AD9
:1031D800204689B2FFF712FF45E753E8002F22F097
:1031E800400243E800210029F7D120220023C4F837
:1031F8008820A3672046FFF7F1FE34E7436F002BD2
:103208003FF431AFBDE8F0411847A36F002B3FF4FE
:103218002AAF2046BDE8F041184797073FF554AF5D
:1032280057077FF551AFCF077FF54EAF04271F62D1
:10323800D4F8907047F00207C4F8907044E7636FC1
:10324800002B3FF469AF20469847266864E7D70704
:103258007FF52AAFEF057FF527AF1DE72046FFF77B
:10326800C1FE00E72046BDE8F04100F08BBE53E800
:10327800002F22F4807243E800210029F7D103F1DE
:10328800080252E8002F22F0010203F1080545E880
:1032980000210029F3D103F1080252E8002F22F09F
:1032A800400203F1080545E800210029F3D1202256
:1032B800C4F88C20E16653E8002F22F0100243E89E
:1032C80000210029F7D1FEF769FFB4F85C507AE7CE
:1032D8002046BDE8F04100F053BEFFF783FEC4F876
:1032E8009050C0E6B4F85E10B4F85E20B4F85C0004
:1032F80092B289B2002A3FF4B6AE411A89B20029C7
:103308003FF4B1AE53E8002F22F4907243E8002056
:103318000028F7D1124D03F1080252E8002F2A4085
:1033280003F1080646E800200028F4D12022C4F85A
:103338008C206067E06653E8002F22F0100243E813
:1033480000200028F7D1022323672046FFF756FE06
:1033580089E600BF0100001020010004F12F0008D9
:10336800FEFFFFEFD0F88C20B0F860100368222A27
:1033780004D09A6942F008029A6170475B6A826DCC
:103388000B401370B0F85E30826D013B9BB2A0F821
:103398005E30B0F85E3001329BB28265002B37D1C7
:1033A80010B5036853E8002F22F4907243E8002117
:1033B8000029F7D103F1080252E8002F22F0010298
:1033C80003F1080444E800210029F3D11B4A4167AE
:1033D80020249342C0F88C40016702D05A68110239
:1033E80017D4C26E012A25D10022C26653E8002FE5
:1033F80022F0100243E800210029F7D1DA69B0F879
:103408005C10D20644BF10221A62FFF7F7FD10BD08
:10341800704753E8002F22F0806243E8002100291A
:10342800DFD053E8002F22F0806243E80021002912
:10343800EFD1D6E7FFF7D4FD10BD00BF00800040F4
:10344800D0F88C10B0F860200368222904D09A695B
:1034580042F008029A61704710B55C6A816D22409B
:1034680021F8022BB0F85E208165013A92B2A0F8EB
:103478005E20B0F85E2092B2002A34D153E8002FC3
:1034880022F4907243E800210029F7D103F10802E1
:1034980052E8002F22F0010203F1080444E8002159
:1034A8000029F3D11A4A416720249342C0F88C407E
:1034B800016702D05A68110216D4C26E012A24D1BB
:1034C8000022C26653E8002F22F0100243E80021D0
:1034D8000029F7D1DA69B0F85C10D20644BF10228F
:1034E8001A62FFF78BFD10BD53E8002F22F08062AF
:1034F80043E800210029E0D053E8002F22F0806241
:1035080043E800210029EFD1D7E7FFF769FD10BD97
:10351800008000402DE9F84F0268B0F860B004461A
:10352800D06917689668D4F88C10222906D01346FB
:10353800926942F008029A61BDE8F88FB4F86830E1
:10354800002B00F0CB8081067FD5DFF89CA1DFF847
:103558009C815FFA8BFB4FF00009526AA36D0BEA5E
:1035680002021A70B4F85E102368A26D013989B29C
:10357800A4F85E10DD690132A2656A071CD0E8076D
:1035880009D5F90507D501221A62D4F8902042F02E
:103598000102C4F89020AA0716D5F00709D502221F
:1035A8001A62D4F89020690742F00402C4F8902007
:1035B8000ED4D4F89030BBB9B4F85E309BB2EBB1FE
:1035C800AB0642D52268C8E76A07F2D5F007F0D5FE
:1035D80004221A62D4F8903043F00203C4F8903001
:1035E800D4F89030002BE7D02046FFF7FBFCC4F856
:1035F8009090B4F85E309BB2002BE1D1236853E879
:10360800002F22F4807243E800210029F7D103F14A
:10361800080252E8002F02EA0A0203F1080040E813
:1036280000210029F3D120224345C4F88C2061678A
:10363800216702D05A6811022AD4E26E012A38D0D2
:103648002046FFF7CDFCAB06BCD4B4F85E309BB285
:10365800002B3FF471AFB4F868209A427FF66CAF44
:10366800236803F1080252E8002F22F0805203F188
:10367800080040E800210029F3D11A4A626753E89C
:10368800002F42F0200243E800210029F7D153E738
:1036980053E8002F22F0806243E800210029CCD0B3
:1036A80053E8002F22F0806243E800210029EFD17F
:1036B800C3E70022E26653E8002F22F0100243E835
:1036C80000210029F7D1DA69B4F85C10D20644BFAA
:1036D80010221A622046FFF791FC71E7B4F85E30B9
:1036E8002AE700BF6D330008FEFFFFEF00800040AF
:1036F8002DE9F84F0368B0F860A0D9691E689D6885
:10370800D0F88C20222A05D09A6942F008029A61E2
:10371800BDE8F88FB0F868208346002A00F0D18011
:10372800890640F18280DFF8A891674F4FF00008C2
:103738005A6ADBF858100AEA020221F8022BBBF891
:103748005E20CBF85810013A92B2ABF85E20DC69E3
:1037580062071CD0E00709D5F10507D501221A62D6
:10376800DBF8902042F00102CBF89020A20717D591
:10377800E80709D502221A62DBF89020610742F0B7
:103788000402CBF890200FD4DBF89030C3B9BBF813
:103798005E309BB2F3B1A30647D5DBF80030C7E72C
:1037A8006207F1D5E807EFD504221A62DBF89030FA
:1037B80043F00203CBF89030DBF89030002BE6D0D2
:1037C8005846FFF70FFCCBF89080BBF85E309BB2F1
:1037D800002BE0D1DBF8003053E8002F22F4807290
:1037E80043E800210029F7D103F1080252E8002F2D
:1037F80002EA090203F1080040E800210029F3D198
:103808002022BB42CBF88C20CBF87410CBF8701078
:1038180002D05A6811022DD4DBF86C20012A3AD064
:103828005846FFF7DDFBA306B7D4BBF85E309BB262
:10383800002B3FF46DAFBBF868209A427FF668AF63
:10384800DBF8003003F1080252E8002F22F0805222
:1038580003F1080040E800210029F3D11B4ACBF806
:10386800742053E8002F42F0200243E80021002989
:10387800F7D14DE753E8002F22F0806243E800219A
:103888000029C9D053E8002F22F0806243E80021C4
:103898000029EFD1C0E70022CBF86C2053E8002FB5
:1038A80022F0100243E800210029F7D1DA69BBF8B9
:1038B8005C10D20644BF10221A625846FFF79EFBDE
:1038C80069E7B0F85E3023E700800040493400081B
:1038D800FEFFFFEF70B504460368826800696169FE
:1038E8001D6802430A43E0698E49024329400A439E
:1038F8001A605A68E168656A22F440520A438A49A4
:103908005A608B429968A26921F06E4121F43061B6
:1039180000F0B080266A32430A439A60DA6A22F0DD
:103928000F022A43DA62814A934235D0804A934291
:103938000DD0804A934255D07F4A934240D001200F
:1039480000234FF00112C4E91D33A26670BD7B4B02
:10395800D3F8883003F00C030C2BF0D801A252F8EE
:1039680023F000BF713A00084739000847390008BA
:1039780047390008DF390008473900084739000887
:1039880047390008333A0008473900084739000822
:1039980047390008013A0008684BD3F8883003F02B
:1039A8000303022B41D0032B26D0012B13D0B0F5F3
:1039B800004F00F0AC80FEF797F8A0B3656A20E0EE
:1039C8005E4BD3F8883003F0C003802B2DD000F273
:1039D8008E80002B48D0B0F5004F00F09E80FDF798
:1039E80035FFEAE7554BD3F8883003F03003202B36
:1039F8001BD0EED9302BA2D1B0F5004F19D04FF41F
:103A0800004063684E4A32F81510B0FBF1F04FF6EB
:103A1800EF7200EB5300B0FBF3F0A0F110039342F8
:103A28008DD82368D86000208AE7B0F5004F454854
:103A3800E7D16268424B33F81510B0FBF1F0530838
:103A480003EB40034FF6EF71B3FBF2F3A3F110025F
:103A58008A423FF674AF23F00F02216892B2C3F393
:103A680042031343CB60DEE7B0F5004F49D0FEF7C1
:103A780029F8A2E711439960DA6A304922F00F0267
:103A88002A43DA62D1F8883003F44063B3F5006F53
:103A980046D02FD8002B3DD0FDF7D8FE0028C2D045
:103AA800656A6668264B06EB460133F81520B0FBBD
:103AB800F2F399423FF643AFB3EB063F3FF63FAF11
:103AC80000231946FDF740F872080302090241EA8B
:103AD8001061981841F1000132460023FDF734F8CF
:103AE800194BA0F540729A423FF629AF99E7C02BCF
:103AF80082D024E7B3F5406F7FF421AF4FF4004044
:103B0800CFE7FDF7DFFF00288DD0656A91E7FDF765
:103B1800EBFFF8E7FDF7D6FFC0E7FDF797FEF2E702
:103B28000848BEE7F369FFCF008000400038014035
:103B38000044004000480040004C00400010024093
:103B4800306A00080024F400FFFC0F00836A1A079B
:103B580010B406D50168846B4A6822F400422243F7
:103B68004A60DC0706D50168C46A4A6822F4003254
:103B780022434A60990706D50168046B4A6822F413
:103B8800803222434A605A0706D50168446B4A6866
:103B980022F4802222434A60DC0606D50168C46B01
:103BA8008A6822F4805222438A60990606D5016801
:103BB800046C8A6822F4005222438A605A0609D5A6
:103BC8000168446C4A6822F480122243B4F5801FCD
:103BD8004A600BD01B0606D50268C16C536823F4F3
:103BE80000230B4353605DF8044B70474A68846CAC
:103BF80022F4C00222434A60ECE700BF2DE9F843F3
:103C0800089F0C460168064615469846CA6934EA74
:103C180002020CBF01220022AA4209D1781C0BD152
:103C2800CB6934EA03030CBF01230023AB42F7D06E
:103C380000231846BDE8F883FDF7AAFBA0EB0800AF
:103C4800B8421AD8CFB131680B685A07DED5802C34
:103C5800DCD0402CDAD0CB6913F008090FD1CA693F
:103C68001305D3D54FF400620A623046FFF780F996
:103C78002022C6F8902086F884900323D9E70824E8
:103C88000C623046FFF774F900220123C6F8904011
:103C980086F88420CDE700BF70B50446002682B0C0
:103CA800C0F89060FDF774FB23681A681207054690
:103CB80010D41B685B0727D400232022C4F888206F
:103CC8001846C4F88C20E3662367002384F8843000
:103CD80002B070BD6FF07E430093324603464FF446
:103CE80000112046FFF78AFF23680028E1D053E837
:103CF800002F22F0800243E800210029F7D1202379
:103D0800C4F888300320E0E76FF07E430093002278
:103D18002B464FF480012046FFF770FF0028CBD0D8
:103D2800236853E8002F22F4907243E80021002909
:103D3800F7D103F1080252E8002F22F0010203F143
:103D4800080040E800210029F3D12023C4F88C3072
:103D5800D8E700BF80B3D0F8883010B5044633B335
:103D68002268A16A2423C4F88830136823F0010369
:103D78001360C1B92046FFF7ADFD012811D02368B3
:103D88005A6822F490425A609A6822F02A029A608D
:103D98001A6842F0010220461A60BDE81040FFF799
:103DA8007BBF012010BD2046FFF7D0FEE2E780F878
:103DB8008430FEF7A1FFD3E70120704730B4846850
:103DC80081650023B4F5805FA0F85C20A0F85E2030
:103DD80043674FD084BB0369002B0CBFFF237F23AD
:103DE80022210024C0F89040C0F88C100168A0F887
:103DF800603001F1080353E8003F43F0010301F18B
:103E0800080545E80034002CF3D1436E8568046941
:103E1800B3F1005F35D0B5F5805F16D0324B4367FC
:103E2800BCB151E8003F43F4907341E80032002AE6
:103E3800F7D1002030BC7047B4F1805FD0D103695E
:103E4800002B0CBF7F233F23CAE7002C46D1274B0A
:103E5800436751E8003F43F0200341E80032002A5D
:103E6800E7D051E8003F43F0200341E80032002A40
:103E7800EFD1DEE70169002940F2FF1318BFFF23E5
:103E8800AEE7B0F868309342C5D8B5F5805F11D079
:103E9800174B43678CB901F1080353E8003F43F01F
:103EA800805301F1080040E80032002AF3D10020D5
:103EB80030BC7047ACB10E4B436751E8003F43F448
:103EC800807341E80032002AE5D051E8003F43F40E
:103ED800807341E80032002AEFD1DCE7024B4367E8
:103EE8009FE7044B4367D6E76D3300084934000861
:103EF8001D350008F9360008D0F88C30202B18D171
:103F080001B10AB90120704730B40B4B0468002591
:103F18009C42C5660AD063681B0207D554E8003F77
:103F280043F0806344E80035002DF7D130BCFFF73B
:103F380045BF0220704700BF0080004003689968B1
:103F48009B6830B44FEA537C0A4D0B4C15F80C2093
:103F5800C1F34261D2006B5C14F80C50615CB2FB97
:103F6800F5F2DB0030BCB3FBF1F3A0F86A20A0F84F
:103F780068307047506A0008486A0008704700BFF8
:103F8800704700BF704700BF90F88430012B17D0EE
:103F98000268242310B4C0F888301168146800231C
:103FA80024F0010421F0005114604366116080F888
:103FB80084302022C0F888205DF8044B18467047EA
:103FC8000220704790F88430012B1FD070B524234D
:103FD8000568C0F888302E682B6823F001032B6031
:103FE800AB6823F060431943436EA96004464BB1A4
:103FF800FFF7A4FF00202E60202384F88400C4F873
:10400800883070BD4FF001138366F3E702207047D4
:1040180090F88430012B1FD070B524230568C0F8B0
:1040280088302E682B6823F001032B60AB6823F0DF
:1040380060631943436EA96004464BB1FFF77EFFE6
:1040480000202E60202384F88400C4F8883070BDD6
:104058004FF001138366F3E70220704710B5002480
:104068008CB02022214604A8CDE90144039402F033
:10407800E1F922484FF400334FF0A042C0E9002391
:10408800082383600423C0E90543012303624FF436
:104098009063C3624FF48063C0E90344848380F86B
:1040A8002440036380F83840C46380F8404000F03F
:1040B800EDF8C0B900231148019301A900F09CFF55
:1040C800C0B90F480622CDE9040200237F24042248
:1040D8000A4804A9CDE90634CDE9082300F03EFBDF
:1040E80020B90CB010BDFDF77FF8E3E7FDF77CF8C9
:1040F8000CB010BDFDF778F8E3E700BF7C32002074
:104108000200300470B5044698B00021442207A884
:10411800CDE90211CDE90411069102F08BF923686B
:10412800B3F1A04F01D018B070BD4FF400424FF06A
:10413800005307A807921693FDF7E8FC00283ED124
:10414800224B234DDA6C42F40052DA64DA6C02F442
:1041580000520092009ADA6C42F00102DA64DB6CD9
:1041680003F0010300260193012203234FF090403E
:1041780002A9CDE902230496019BFDF717FE154A13
:104188002E620523C5E900234FF480738022C5E918
:10419800042328464FF48063C5E90266C5E906365C
:1041A800FDF712FF70B90022114665651220AC6256
:1041B800FEF744F91220FEF77DF918B070BDFDF73F
:1041C80013F8BDE7FDF710F8EDE700BF0010024057
:1041D8001C3200200800024000B51A481A4A89B06B
:1041E80002600322002342601822CDE90433CDE99E
:1041F8000633CDE90133C0E90232039303618361D9
:10420800FEF7D4FB98B94FF480530E48049304A9E1
:10421800FEF7ACF998B9202200230A48019201A9B7
:104228000393FEF7F5FB28B909B05DF804FBFCF72A
:10423800DBFFE8E7FCF7D8FF09B05DF804FBFCF703
:10424800D3FFE8E7E8320020000400400E4B026884
:104258009A4200D0704700B503F5033383B0986DD8
:1042680040F0020098659B6D002203F00203019361
:1042780011461D20019BFEF7E1F81D2003B05DF8F3
:1042880004EBFEF717B900BF0004004030B583B057
:1042980000230193002800F0AA80C56D0446002D74
:1042A80000F0AA80226893689D0005D5936823F0E2
:1042B800204323F03F0393609368D80019D4684BD8
:1042C80068481B6891689B09A0FB030321F0104113
:1042D8009B0921F03F0101335B0041F0805191605F
:1042E8000193019B2BB1019B013B0193019B002B87
:1042F800F9D19368D9007DD4E36D43F01003E365E9
:10430800236E012003432366936813F0040FE36DC3
:1043180069D1DB0667D4E36D23F4817343F00203AC
:10432800E3659368DD0709D44FF0A0439B6813F059
:10433800010F4D4B9B6801D1D90770D5E568E36B38
:1043480094F824102B43A5682B43657F012943EA81
:10435800453343EA014355D0E16A21B1256B01F4A5
:10436800787129430B43D568404929401943D160E6
:104378001369616B23F040630B43136193681B0758
:1043880022D4D16894F83830257F21F480415B002D
:1043980021F0020143EA85330B432169D360136995
:1043A800002944D043F480331361D2F8C0306FF34E
:1043B8000D030B43C2F8C03094F84030012B40D0B5
:1043C800136923F0010313616369012B1FD0136B79
:1043D80023F00F031363E36D23F0030343F001039A
:1043E800E36503B030BDE36D43F01003E3650120DE
:1043F80003B030BD002087E7FFF784FE256684F808
:1044080058504FE7A16A013943EA4143A4E7116BC9
:10441800236A21F00F01013B0B431363DBE71449C7
:1044280065688B6823F47C132B438B6086E723F441
:1044380080331361D2F8C0306FF30D03C2F8C03077
:10444800BAE71169636CA56C6FF38A012B430B43C0
:10445800E16C0B43216D0B4343F001031361B3E798
:1044680008000020632D3E05000100500740F0FFC2
:1044780000030050704700BF704700BF08B5806A4E
:10448800FFF7FAFF08BD00BF704700BF704700BFC5
:10449800F8B503688D4A1D685E689768A9070446E1
:1044A80007F01F0702D5B20700F19F80690779D589
:1044B800720777D5E26DD20603D4E26D42F400723A
:1044C800E265DA6812F4406F1CD1814A934200F029
:1044D800DD80DA68910415D41A68120712D59A6833
:1044E800500700F1E1805A6822F00C025A60E36D2F
:1044F80023F48073E365E36DD90403D4E36D43F0DB
:104508000103E3652046FFF7B5FF23680C221A6014
:10451800AA064DD5B0064BD5E26DD00603D4E26DA0
:1045280042F40052E2656A49DA6CD8688B4202F4B8
:10453800C07268D0D968D2B98A0100F19F801A6820
:10454800500614D5890212D49A68120700F1B58072
:104558005A6822F060025A60E36D23F48053E365E1
:10456800E36DD80503D4E36D43F00103E36520460A
:1045780000F038FD236860221A60290601D532064A
:1045880055D4E80501D5F1055CD4AA0501D5B005D7
:1045980041D4E90601D5F2060FD4690501D57205A3
:1045A8005CD4F8BD2807B3D5310783D4AA06B1D4A3
:1045B8006906E2D57206E0D5AEE7E26B32B1002FAC
:1045C8006ED0424A926812F4604F0BD0E36D43F408
:1045D8008063E365236E43F0020323662046FFF7FA
:1045E80055FF236810221A60D7E7C36DD80603D495
:1045F800E36D43F40063E365204600F0FBFC2368A9
:1046080002221A6052E7C121F940C90792D44FF03B
:10461800A041C9688FE7E36D43F48023E365204632
:1046280000F0E6FC23684FF400721A60B1E7E36D0E
:1046380043F48033E3652046FFF726FF2368802292
:104648001A609EE7E36D43F40033E365204600F00B
:10465800CDFC23684FF480721A6096E7E26D42F44D
:104668008042E265226E4FF4806142F008022266C1
:1046780020461960BDE8F84000F0B6BC00F4406080
:1046880001F4005202437FF472AF58E740F221224E
:10469800FA40D0073FF51DAF4FF0A042D26819E7A6
:1046A800DA68D0079ED591E7E36D43F01003E36520
:1046B800236E43F00103236624E7E36D43F0100300
:1046C800E365236E43F00103236650E700030050BF
:1046D80000010050836ADA6D12F0500F10B5DA6DE0
:1046E8001DD1196842F40072DA650A6812F0080FE1
:1046F800CA681BD012F4406F0DD1CA6894040AD45A
:10470800DA6D22F48072DA65DA6DD10403D4DA6DD9
:1047180042F00102DA651846FFF7ACFE10BDD2067A
:104728000AD45B6DBDE810405B6B18479007E7D56E
:104738001846FFF79FFEF1E71846FFF7A7FE10BDE2
:10474800806A08B5C36D43F04003C365036E43F048
:1047580004030366FFF79AFE08BD00BFF0B590F8A2
:10476800582083B00346012A4FF00000019000F062
:104778002E811A68012083F858009468640757D47A
:1047880048684FEA901E00F01F0C0EF00C0E0868E7
:1047980002F13004C0F3846054F80E501F2600FA6A
:1047A8000CF006FA0CFC25EA0C0C40EA0C0044F864
:1047B8000E009068400744D5906808689468E6073A
:1047C800054613D4CF68B44CD2F8B06007F0180C83
:1047D80024FA0CF4C0F3120C044026EA0C06344305
:1047E800C2F8B040AD4CA74200F0A080AC490D42E1
:1047F8001CD0AC48AC4C8168A54201F0E07672D080
:10480800AA4CA5426FD0AA4CA54200F0E380A94C5F
:10481800A5420BD1490209D4A7498A4206D0826829
:1048280022F0E072324342F480028260002003E00A
:10483800DA6D42F02002DA65002283F8582003B0CE
:10484800F0BD946808682707B8D48D68C0F304568B
:104858000724C00DB440B5F1004F00F004006FEA22
:10486800040400F00F8102F11407B5403E583440AB
:104878002C433C50506920F000405061D1E9046459
:10488800042ED568086800F0C980C5F3C1056D001D
:1048980000F0F84704FA05F002F16004874D54F877
:1048A80026C00CEA05053D43284340F0004044F883
:1048B80026000D698E6954F8250020F08070304379
:1048C80044F825000E690D7F54F82600A5F101056E
:1048D800B5FA85F56D0920F0007040EA456044F8A6
:1048E800260008686AE70D02A0D4B2F1A04F9DD156
:1048F8006C4973488A6822F0E072324342F400023D
:104908008A6002686F499209A1FB0212920901327A
:1049180002EB420292000192019A002A86D0019A83
:10492800013A0192019A002AF9D17FE7BCF1000F00
:104938005FD090FAA0F4002C00F0C680B4FA84F49A
:10494800013404F01F04092C40F2BE8090FAA0F450
:10495800002C00F05E81B4FA84F40134A40604F05B
:10496800F84490FAA0F5002D00F05181B5FA85F5CC
:10497800013505F01F05012606FA05F52C4390FAC6
:10498800A0F0002800F04181B0FA80F0451C05F045
:104998001F0503206FF01D0610FB0560000540F0A1
:1049A80000702043C50D8C6805F0040502F114065B
:1049B800C0F3045004FA00F74FF0070C74590CFACE
:1049C80000F024EA0000384370510D680EE7022019
:1049D80003B0F0BDCC013FF529AF37498A423FF417
:1049E80025AF826822F0E072324342F08072826022
:1049F8001CE7800E013000F01F050124800600F03E
:104A0800F840AC40092D44EA000405EB450040F2AB
:104A180080801E38000540F00070C2E7146E146EE6
:104A2800C0F31205C4F38464002D74D1C0F3846606
:104A3800B44200F0A680546E556E02F16004C5F3CE
:104A4800846502F1640CB54200F0C180A568A568D0
:104A580004F10807C5F38465C0F38466AE4200F02C
:104A6800A480E568E56804F10C06C5F38464C0F326
:104A78008465A5427FF4A2AE306820F00040306023
:104A880008689BE602F1140635582C4034505069EA
:104A980040F000405061F1E6FFFF070000007F4052
:104AA8000000088000030050000021C31000C090DF
:104AB800000052C7000084CB0001005000F0FF0343
:104AC80008000020632D3E0590FAA0F4002C00F0A9
:104AD800A880B4FA84F40134A40604F0F84490FAE7
:104AE800A0F5002D00F09B80B5FA85F5013505F09D
:104AF8001F05012606FA05F52C4390FAA0F00028B8
:104B080000F08A80B0FA80F0013000F01F0000EB5E
:104B18004000000545E790FAA0F51DB1B5FA85F506
:104B2800AC422ED0546E556E02F16004C5F3846514
:104B380002F1640C90FAA0F604F10807BE46002EB4
:104B48005ED0B6FA86F6AE4243D03D683D68C5F3FE
:104B5800846590FAA0FC04F10C06B646BCF1000F7F
:104B680049D0BCFA8CFCAC4521D034683468C4F315
:104B7800846490FAA0F5002D3FF420AEB5FA85F5CF
:104B880077E7106E144620F0004044F8600F506E2E
:104B98000868556EC0F3120602F1640CC5F384650B
:104BA800002EC7D1C0F384664DE704F10C0E3868B7
:104BB80020F000403860E0680868E468C0F3120537
:104BC8007646C4F38464002D3FF451AFD1E704F175
:104BD800080EDCF8000020F00040CCF80000A068C7
:104BE8000868A568C0F312067746C5F38465002EE9
:104BF8003FF432AFADE7E568E468C4F38464B8E72E
:104C0800A568A568C5F38465A3E70748C9E6022532
:104C1800B4E64FF08064A4E64FF44010C1E60225E4
:104C28006AE74FF080645AE7000050FE03689A680C
:104C380012F0040F70B59A68044601D116073CD5E6
:104C4800DA68950104D5A08B40F20112904245D054
:104C580002299A6833D0500702D59A68920759D525
:104C6800012955D09A6810070AD59A68920707D47F
:104C78009A6822F0004222F03F0242F020029A6035
:104C8800032945D10C25FCF783FB236806469B685E
:104C98001D4212D0FCF77CFB801B05282368F6D93F
:104CA8009A682A42F3D0E36D43F01003E365236E5C
:104CB80043F001032366012070BD002070BD160774
:104CC8000AD59A68950707D49A6822F0004222F01C
:104CD8003F0242F020029A600825D4E71A6850067D
:104CE80006D4114A01E0013ADDD019684906FAD51F
:104CF80040221A609A6856070AD59A68950707D419
:104D08009A6822F0004222F03F0242F010029A60B4
:104D18000425B8E79A6822F0004222F03F0242F0E8
:104D280010029A609CE700BF000040A370B582B0F3
:104D38000022036801929A68D2072CD49968284AFD
:104D4800114204462AD19A68264922F0004222F0EC
:104D58003F0242F001029A608B681B0229D4FCF7DB
:104D680017FB23681A68D607054614D41E4E9A689E
:104D7800D00704D49A68324042F001029A60FCF7E6
:104D880007FB431B022B236802D91A68D10705D5F4
:104D98001A68D207EBD5002002B070BDE36D43F06E
:104DA8001003E365236E012043F00103236602B07C
:104DB80070BD0E4B0E4A1B689B09A2FB03239B097F
:104DC800013303EB43039B000193019B002BC6D0E7
:104DD800019B013B0193019B002BF9D1BFE700BF69
:104DE8003F00008000030050C0FFFF7F0800002044
:104DF800632D3E05354B2DE9F041D3F80880036853
:104E08009D6815F0040516D190F85830012B04461A
:104E180011D008F01F0840F221234FF0010C23FAAB
:104E280008F313EA0C0380F858C007D180F858300B
:104E38006046BDE8F0810220BDE8F0810E461746C5
:104E4800FFF774FF00283AD1E36D216823F47063FB
:104E580023F0010343F48073E3651D4B994231D07D
:104E6800E36D23F48013E365E36D606D194D13F46E
:104E780080531CBF236E23F006032366C562164DBC
:104E88000563164D45631C250D60002584F85850B0
:104E98004D6845F010054D60CD6845F001053B466D
:104EA8003246CD604031FDF721F92268936823F03E
:104EB800004323F03F0343F004039360BCE784F806
:104EC8005850B9E7B8F1000FCED1C9E70003005038
:104ED80000010050DD4600088544000849470008E5
:104EE80038B503689A68950702D59B68002038BDD5
:104EF8009A68D407FAD59A6802F00D02012A044686
:104F080009D0E36D43F01003E365236E43F001031A
:104F18002366012038BD9A6822F0004222F03F0241
:104F2800032142F002029A601960FCF731FA236803
:104F38009B68D907054603D4D8E79B68DB07D5D516
:104F4800FCF726FA401B02282368F6D99A68D2078C
:104F5800F3D5D6E738B590F85830012B28D001237F
:104F680080F8583003210446FFF760FE0546D0B9A3
:104F78002368606DDA6822F00102DA6090F8252073
:104F8800022A18D05A6822F010025A602046FFF709
:104F9800A7FF054638B9E36D23F4885323F00103CE
:104FA80043F00103E365002384F85830284638BDF0
:104FB8000225284638BDFDF7F1F8054660B1E36DD6
:104FC800226843F04003E365536823F0100320464A
:104FD8005360FFF785FFE6E72268536823F0100364
:104FE8005360D3E7704700BF704700BF704700BFEA
:104FF800704700BF704700BF90F85820012A45D07D
:10500800F0B404689CB0034600220120B4F1A04F1C
:10501800189283F85800199208D0D96D83F858204F
:1050280041F02001D9651CB0F0BC7047224A906855
:1050380040070BD5A268DA6D42F020020120DA653C
:10504800002283F858201CB0F0BC7047A0684507C0
:10505800F1D40D68E5B1194E4F68B06893F838C0BF
:1050680020F46040384340EA4C30B060A068926851
:10507800C0071ED4D7071CD4B268896822F47162AD
:105088000D4322F00F021543B56012E0022070476D
:105098000A48816821F460418160A1689268CD075F
:1050A80007D4D40705D4826822F4716222F00F0273
:1050B80082600020C4E700BF0001005000030050D8
:1050C80010B50F4B986C40F0040082B098649C6C4B
:1050D80004F004040094009C9C6C44F001049C645B
:1050E8009B6C002203F00103019311460B20019BE6
:1050F800FDF7A4F90B2002B0BDE81040FDF7DAB9BE
:10510800001002400D488546FDF7E2FC0C480D49A9
:105118000D4A002302E0D458C4500433C4188C420A
:10512800F9D30A4A0A4C002301E013600432A24270
:10513800FBD301F08DF9FCF70BF8FEE700800020A7
:10514800000000205C000020609A01086000002038
:105158006C340020FEE7000078B130B40849094AF1
:105168001023C0E90121038020251424064B058261
:105178008481436130BC002070474FF0FF30704796
:10518800087A000840C30008C050010878B130B45C
:105198000849094A2023C0E9012103804025302419
:1051A800064B05828481436130BC002070474FF074
:1051B800FF307047609B0008C00B01084099010848
:1051C80080B130B409490A4A8023C0E9012103802B
:1051D8004FF48075D024074B05828481436130BC2D
:1051E800002070474FF0FF30704700BF6878000814
:1051F80040BF0008C04C010890B130B40A490B4ABE
:105208004FF48073C0E9012103804FF400754FF417
:10521800DC74074B05828481436130BC00207047F1
:105228004FF0FF30704700BFF0970008C003010837
:105238004091010890B130B40A490B4A4FF4007309
:10524800C0E9012103804FF480654FF4E074074BF7
:1052580005828481436130BC002070474FF0FF30E5
:10526800704700BFC09B0008C00C0108C01C0108A3
:1052780090B130B40A490B4A4FF48063C0E9012168
:1052880003804FF400654FF4E164074B0582848185
:10529800436130BC002070474FF0FF30704700BFBB
:1052A800586A0008409F0008C02C010890B130B42B
:1052B8000A490B4A4FF40063C0E9012103804FF407
:1052C80080554FF46E64074B05828481436130BC7E
:1052D800002070474FF0FF30704700BF307A000859
:1052E800C0C3000840510108B1F5007F1FD00BD999
:1052F800B1F5006F19D0B1F5805F12D0B1F5806FAC
:105308000DD04FF0FF30704740290CD0B1F5807FA9
:1053180003D02029F5D1074B1847074B1847074BEF
:105328001847074B1847074BF6E7074BF4E7074BB7
:10533800F2E700BF61510008C95100083D5200085A
:10534800B55200089551000879520008015200082A
:1053580010B4D1ED007A91ED017A0488406937EEF6
:10536800077A77EEA77AB6EE004A77EE876A77EE85
:10537800C77A013C26EE847A67EE847A01EBC4038F
:1053880082ED007AC2ED017A10301032083B1031FC
:1053980011ED025A93ED027A50ED026AD3ED034AF9
:1053A80051ED017A10ED016A77EE455A37EE057A2C
:1053B80066EEA53A34EEA75A66EE255A77EEE47AF9
:1053C80037EE237A66EE856A26EE056A77EEA57AC9
:1053D80037EE067A77EEE67A27EE047A67EE847A75
:1053E800013C02ED027A42ED017AA3F1080301F1D2
:1053F800080100F1080002F10802C9D15DF8044B68
:10540800704700BF10B4D1ED007AD1ED016A04886D
:10541800406937EEA67A77EEE67AB6EE004A27EECE
:10542800047A67EE847A013C82ED007AC2ED017A53
:10543800DCB3E300083B0B4410301032103111ED9F
:10544800025A93ED027A50ED026AD3ED034A51ED08
:10545800017A10ED016A75EE475A37EE057A66EE65
:10546800A53A34EEA75A66EE255A77EEE47A37EE77
:10547800637A66EE856A26EE056A77EEA57A37EED8
:10548800467A77EEE67A27EE047A67EE847A013C6C
:1054980002ED027A42ED017AA3F1080301F1080155
:1054A80000F1080002F10802C9D15DF8044B704709
:1054B8002DE9F041058A6D080580044616461D460B
:1054C8004BB1FFF79FFF2A46314620460123BDE82E
:1054D800F04100F033BB0F461A46012300F02EFBC3
:1054E800324639462046BDE8F041FFF731BF00BFDC
:1054F8002DE9F0412DED088B07460846B7F800C0A6
:105508007A684FEA5C0100EB8C085FEADC0C00F07B
:10551800B0808C00103400F1100306191032444496
:1055280003EB0C1C08F1100515ED042A55ED032AB0
:1055380054ED044A14ED034A14ED026A54ED015A7D
:1055480053ED043A15ED020A55ED010A56ED046AC9
:1055580016ED033A13ED037A13ED025A53ED017A6F
:1055680016ED021A56ED011A73EE82BA37EE22BA18
:1055780076EEA49A33EE049A31EEA58A75EE00AA67
:1055880037EEA0AA71EE068A43ED04BA03ED03BA1A
:1055980043ED02AA03ED01AA06ED018A46ED049A3D
:1055A80006ED039A46ED028A37EE627A74EEE64A11
:1055B80034EE434A52ED036A12ED043A73EEC23AEE
:1055C80027EE268A64EEA62A23EE832A64EE834A0F
:1055D80063EEA63A27EE037A64EE266A24EE034ABF
:1055E80037EE637A76EEA46A32EEC44A32EE083AAF
:1055F80005ED037A05ED043A04ED044A44ED036A27
:1056080012ED017A76EE416A35EE405A35EEE16ADE
:1056180077EEE07A52ED025A67EE873A66EE874AED
:1056280025EE254A67EEA57A25EE075A66EEA56AA5
:1056380026EE077A26EE256A77EEC57A74EE235AA7
:1056480034EEC66A37EE267A1033634545ED025AC2
:1056580006F1100645ED017A02F1100204ED026A26
:1056680004ED017A05F1100504F110047FF45CAF34
:105678007A688CB22146022300F01CFCBDEC088B32
:1056880021467A6840460223BDE8F04100F012BC8A
:105698002DE9F04F2DED0A8B8DB00D460B91018849
:1056A80042680A9049088B00EE18F018D0ED005AAD
:1056B800D5ED007A96ED007AD0ED013A96ED014AE3
:1056C80095ED015A089037EEA56AC718D7ED004A3C
:1056D80097ED013A019777EE066A2C4676EEA46AB2
:1056E80077EEE57A16EE90CA44F808CB75EE236A91
:1056F800D6ED015AD7ED012A049435EE635A74EEBB
:10570800273A36EE476A76EEA55A73EEC33A490849
:1057180002F1080E76EEC46A77EEC47A099135EE86
:10572800474AA1F10209CDF80CE0314613EE90EAA0
:1057380036EE646A75EEA25A0446C5ED015A37EE94
:10574800057A41F808EB34EE245A16EE10EA86ED95
:10575800015A76EEC36A44F808EB77EE837AC0ED17
:10576800016A0594044617EE900A069137EE647AAA
:1057780002F11001BC46009147F8080B02F118012C
:105788005FEA590002918CED017A079000F03481AC
:1057980002F1200902F13008019ADDF800A00C3B63
:1057A8008346634405F1100EA4F10C0104F11005C1
:1057B800A6F10C0CA2F10C0406F1100010321EED3B
:1057C800025A55ED025A50ED027A52ED021A55ED81
:1057D800016A1EED010A12ED011A10ED018A35EE7B
:1057E800254A30EE266A37EE847A30EE660A37EEBE
:1057F800217A75EE655A0EED027A10ED017A52EDB6
:10580800016A36EE077A78EE25AA37EE267A70EE28
:10581800673A0EED017A94ED027A9CED022A91ED39
:1058280002BAD3ED029AD4ED012A9CED019A93EDC8
:10583800015AD1ED010A72EE076A32EE472A7BEE71
:10584800268A79EE224A38EEA97A79EE622A8CED18
:10585800027A91ED017AD3ED018A34EE877A3BEE34
:10586800693A37EE287A32EE609A8CED017A1AEDB1
:10587800017A1AED02AA73EE228A39EE059A7AEEB7
:10588800C1AA73EEA13A2AEE8ACA69EE07BA6AEE8D
:1058980087AA29EE0A9A63EE87CA63EE8A3A28EE47
:1058A8008AAA68EE878A73EEEA3A78EE898A3CEE2D
:1058B8002C7A3BEECAAA34EE674A76EECB6A36EE0D
:1058C800486A74EEE04A00ED027A40ED013AC1ED13
:1058D800018A81ED02AA59ED043A36EEE97A74EEAE
:1058E800C54A59ED036A34EE614A36EE416A67EEFD
:1058F800638A66EE269A24EE239A26EE236A24EE1D
:10590800264A27EE267A64EEA66A64EEA34A36EEA5
:10591800446A37EE647A38EEE64A79EE293A75EE4B
:10592800606A75EEC85A77EE807A45ED023A05ED61
:10593800016A84ED017A84ED024A35EE816A36EE19
:10594800C27A58ED065A58ED056A33EE623A77EE98
:10595800E17A67EE262A67EEA64A26EE255A67EE12
:10596800A57A26EE266A27EE257A63EE266A23EEC6
:10597800253A77EEC67A75EE245A32EEC33A36EEF9
:10598800877ABBF1010B42ED025A42ED017A0EF122
:10599800080E83ED023A83ED017AACF1080C0AF1A6
:1059A800080A00F10800A1F1080109F1100905F140
:1059B8000805A4F1080408F1180802F10802A3F187
:1059C80008037FF4FCAE07990098CB0001EB410275
:1059D80000EB0111009104991944049103991944A9
:1059E800039106991944069105991F441944029B8D
:1059F800059103EBC20302930499059891ED004ABF
:105A0800D0ED006A069B97ED003AD3ED007AD0ED11
:105A1800014AD1ED013A97ED012A93ED017A039AF3
:105A2800BDF8244034EE266A73EEA45A37EE865A3F
:105A380073EEE43A35EE035A74EE666A81ED005A65
:105A480093ED015AD7ED014A35EE855A37EE264ACD
:105A580035EE245A73EEE74A81ED015AD2ED001A69
:105A6800D2ED012A34EE835A34EE424A36EE676AA2
:105A780064EE214A24EE224A65EE222A25EE215AB6
:105A880074EEA22A35EE445AC3ED002A83ED015A7A
:105A980075EEC75A009B36EE436A93ED014A93EDC3
:105AA800005A029B75EEC25A66EE054A25EE855AE3
:105AB80026EE046A65EE845A35EE466A74EEA55AF7
:105AC80077EEA37A36EEC77A80ED016AC0ED005A08
